{
    "_format": "hh-sol-artifact-1",
    "contractName": "BankContract",
    "sourceName": "contracts/BankContract.sol",
    "abi": [
        {
            "inputs": [],
            "stateMutability": "nonpayable",
            "type": "constructor"
        },
        {
            "inputs": [],
            "name": "bankName",
            "outputs": [
                {
                    "internalType": "string",
                    "name": "",
                    "type": "string"
                }
            ],
            "stateMutability": "view",
            "type": "function"
        },
        {
            "inputs": [],
            "name": "bankOwner",
            "outputs": [
                {
                    "internalType": "address",
                    "name": "",
                    "type": "address"
                }
            ],
            "stateMutability": "view",
            "type": "function"
        },
        {
            "inputs": [
                {
                    "internalType": "address",
                    "name": "",
                    "type": "address"
                }
            ],
            "name": "customerBalance",
            "outputs": [
                {
                    "internalType": "uint256",
                    "name": "",
                    "type": "uint256"
                }
            ],
            "stateMutability": "view",
            "type": "function"
        },
        {
            "inputs": [],
            "name": "depositMoney",
            "outputs": [],
            "stateMutability": "payable",
            "type": "function"
        },
        {
            "inputs": [],
            "name": "getBankBalance",
            "outputs": [
                {
                    "internalType": "uint256",
                    "name": "",
                    "type": "uint256"
                }
            ],
            "stateMutability": "view",
            "type": "function"
        },
        {
            "inputs": [],
            "name": "getCustomerBalance",
            "outputs": [
                {
                    "internalType": "uint256",
                    "name": "",
                    "type": "uint256"
                }
            ],
            "stateMutability": "view",
            "type": "function"
        },
        {
            "inputs": [
                {
                    "internalType": "string",
                    "name": "_name",
                    "type": "string"
                }
            ],
            "name": "setbankName",
            "outputs": [],
            "stateMutability": "nonpayable",
            "type": "function"
        },
        {
            "inputs": [
                {
                    "internalType": "address payable",
                    "name": "_to",
                    "type": "address"
                },
                {
                    "internalType": "uint256",
                    "name": "_total",
                    "type": "uint256"
                }
            ],
            "name": "withdrawMoney",
            "outputs": [],
            "stateMutability": "payable",
            "type": "function"
        }
    ],
    "bytecode": "0x608060405234801561001057600080fd5b50336000806101000a81548173ffffffffffffffffffffffffffffffffffffffff021916908373ffffffffffffffffffffffffffffffffffffffff160217905550610d38806100606000396000f3fe60806040526004361061007b5760003560e01c8063a853409a1161004e578063a853409a1461011d578063b1b7dff814610148578063e147aaa714610171578063f274c8971461019c5761007b565b806316c05aa21461008057806327d358011461008a57806337ebe47b146100b55780637b83b50b146100f2575b600080fd5b6100886101b8565b005b34801561009657600080fd5b5061009f610253565b6040516100ac9190610999565b60405180910390f35b3480156100c157600080fd5b506100dc60048036038101906100d7919061070f565b6102e1565b6040516100e99190610a3b565b60405180910390f35b3480156100fe57600080fd5b506101076102f9565b6040516101149190610a3b565b60405180910390f35b34801561012957600080fd5b50610132610390565b60405161013f9190610a3b565b60405180910390f35b34801561015457600080fd5b5061016f600480360381019061016a9190610774565b6103d7565b005b34801561017d57600080fd5b5061018661047f565b604051610193919061097e565b60405180910390f35b6101b660048036038101906101b19190610738565b6104a3565b005b600034116101fb576040517f08c379a00000000000000000000000000000000000000000000000000000000081526004016101f2906109bb565b60405180910390fd5b34600260003373ffffffffffffffffffffffffffffffffffffffff1673ffffffffffffffffffffffffffffffffffffffff168152602001908152602001600020600082825461024a9190610ad3565b92505081905550565b6001805461026090610bed565b80601f016020809104026020016040519081016040528092919081815260200182805461028c90610bed565b80156102d95780601f106102ae576101008083540402835291602001916102d9565b820191906000526020600020905b8154815290600101906020018083116102bc57829003601f168201915b505050505081565b60026020528060005260406000206000915090505481565b60008060009054906101000a900473ffffffffffffffffffffffffffffffffffffffff1673ffffffffffffffffffffffffffffffffffffffff163373ffffffffffffffffffffffffffffffffffffffff161461038a576040517f08c379a000000000000000000000000000000000000000000000000000000000815260040161038190610a1b565b60405180910390fd5b47905090565b6000600260003373ffffffffffffffffffffffffffffffffffffffff1673ffffffffffffffffffffffffffffffffffffffff16815260200190815260200160002054905090565b60008054906101000a900473ffffffffffffffffffffffffffffffffffffffff1673ffffffffffffffffffffffffffffffffffffffff163373ffffffffffffffffffffffffffffffffffffffff1614610465576040517f08c379a000000000000000000000000000000000000000000000000000000000815260040161045c906109db565b60405180910390fd5b806001908051906020019061047b9291906105c5565b5050565b60008054906101000a900473ffffffffffffffffffffffffffffffffffffffff1681565b600260003373ffffffffffffffffffffffffffffffffffffffff1673ffffffffffffffffffffffffffffffffffffffff168152602001908152602001600020548110610524576040517f08c379a000000000000000000000000000000000000000000000000000000000815260040161051b906109fb565b60405180910390fd5b80600260003373ffffffffffffffffffffffffffffffffffffffff1673ffffffffffffffffffffffffffffffffffffffff16815260200190815260200160002060008282546105739190610b29565b925050819055508173ffffffffffffffffffffffffffffffffffffffff166108fc829081150290604051600060405180830381858888f193505050501580156105c0573d6000803e3d6000fd5b505050565b8280546105d190610bed565b90600052602060002090601f0160209004810192826105f3576000855561063a565b82601f1061060c57805160ff191683800117855561063a565b8280016001018555821561063a579182015b8281111561063957825182559160200191906001019061061e565b5b509050610647919061064b565b5090565b5b8082111561066457600081600090555060010161064c565b5090565b600061067b61067684610a87565b610a56565b90508281526020810184848401111561069357600080fd5b61069e848285610bab565b509392505050565b6000813590506106b581610cbd565b92915050565b6000813590506106ca81610cd4565b92915050565b600082601f8301126106e157600080fd5b81356106f1848260208601610668565b91505092915050565b60008135905061070981610ceb565b92915050565b60006020828403121561072157600080fd5b600061072f848285016106a6565b91505092915050565b6000806040838503121561074b57600080fd5b6000610759858286016106bb565b925050602061076a858286016106fa565b9150509250929050565b60006020828403121561078657600080fd5b600082013567ffffffffffffffff8111156107a057600080fd5b6107ac848285016106d0565b91505092915050565b6107be81610b5d565b82525050565b60006107cf82610ab7565b6107d98185610ac2565b93506107e9818560208601610bba565b6107f281610cac565b840191505092915050565b600061080a602483610ac2565b91507f4465706f73697420616d6f756e742073686f756c64206265206d6f726520746860008301527f616e2030000000000000000000000000000000000000000000000000000000006020830152604082019050919050565b6000610870602a83610ac2565b91507f596f75206d75737420626520746865206f776e657220746f207365742074686560008301527f2062616e6b206e616d65000000000000000000000000000000000000000000006020830152604082019050919050565b60006108d6601f83610ac2565b91507f496e73756666696369656e7420616d6f756e7420746f207769746864726177006000830152602082019050919050565b6000610916602983610ac2565b91507f596f75206d75737420626520746865206f776e657220746f206765742042616e60008301527f6b2062616c616e636500000000000000000000000000000000000000000000006020830152604082019050919050565b61097881610ba1565b82525050565b600060208201905061099360008301846107b5565b92915050565b600060208201905081810360008301526109b381846107c4565b905092915050565b600060208201905081810360008301526109d4816107fd565b9050919050565b600060208201905081810360008301526109f481610863565b9050919050565b60006020820190508181036000830152610a14816108c9565b9050919050565b60006020820190508181036000830152610a3481610909565b9050919050565b6000602082019050610a50600083018461096f565b92915050565b6000604051905081810181811067ffffffffffffffff82111715610a7d57610a7c610c7d565b5b8060405250919050565b600067ffffffffffffffff821115610aa257610aa1610c7d565b5b601f19601f8301169050602081019050919050565b600081519050919050565b600082825260208201905092915050565b6000610ade82610ba1565b9150610ae983610ba1565b9250827fffffffffffffffffffffffffffffffffffffffffffffffffffffffffffffffff03821115610b1e57610b1d610c1f565b5b828201905092915050565b6000610b3482610ba1565b9150610b3f83610ba1565b925082821015610b5257610b51610c1f565b5b828203905092915050565b6000610b6882610b81565b9050919050565b6000610b7a82610b81565b9050919050565b600073ffffffffffffffffffffffffffffffffffffffff82169050919050565b6000819050919050565b82818337600083830152505050565b60005b83811015610bd8578082015181840152602081019050610bbd565b83811115610be7576000848401525b50505050565b60006002820490506001821680610c0557607f821691505b60208210811415610c1957610c18610c4e565b5b50919050565b7f4e487b7100000000000000000000000000000000000000000000000000000000600052601160045260246000fd5b7f4e487b7100000000000000000000000000000000000000000000000000000000600052602260045260246000fd5b7f4e487b7100000000000000000000000000000000000000000000000000000000600052604160045260246000fd5b6000601f19601f8301169050919050565b610cc681610b5d565b8114610cd157600080fd5b50565b610cdd81610b6f565b8114610ce857600080fd5b50565b610cf481610ba1565b8114610cff57600080fd5b5056fea26469706673582212200c57620278722dda56792378f92b08a21d6c1bcf7d93253474524f7747f424e764736f6c63430008000033",
    "linkReferences": {},
    "deployedLinkReferences": {}
}